:020000040800F2
:10000000000001204D5E0008A92E0008AB2E00085C
:10001000AD2E0008AF2E0008B12E00080000000031
:10002000000000000000000000000000B32E0008E7
:10003000B52E000800000000B72E0008B92E0008F9
:100040009D5E00089D5E00089D5E00089D5E0008A4
:100050009D5E00089D5E00089D5E00089D5E000894
:100060009D5E00089D5E00089D5E00089D5E000884
:10007000C12E00089D5E0008D12E00089D5E00087C
:100080009D5E0008E12E00089D5E00089D5E000850
:100090009D5E00089D5E00089D5E00089D5E000854
:1000A0009D5E00089D5E00089D5E00089D5E000844
:1000B0009D5E00089D5E00089D5E00089D5E000834
:1000C0009D5E00089D5E00089D5E00089D5E000824
:1000D0009D5E0008F12E0008012F0008112F000876
:1000E0009D5E00089D5E00089D5E00089D5E000804
:1000F0009D5E00089D5E00089D5E00089D5E0008F4
:100100009D5E000800000000000000009D5E0008E9
:100110009D5E0008212F0008312F0008412F0008A4
:100120009D5E00089D5E00089D5E00089D5E0008C3
:100130009D5E00089D5E00080000000000000000B9
:100140009D5E00089D5E00089D5E000800000000A6
:10015000000000000000000000000000000000009F
:100160009D5E00089D5E00089D5E00089D5E000883
:100170009D5E00089D5E00089D5E00089D5E000873
:100180009D5E00089D5E0008000000000000000069
:040190009D5E000868
:1001A0000348044B834202D0034B03B11847704706
:1001B0007000002070000020000000000548064983
:1001C0000B1AD90F01EBA301491002D0034B03B165
:1001D00018477047700000207000002000000000E9
:1001E00010B5064C237843B9FFF7DAFF044B13B17F
:1001F0000448AFF300800123237010BD700000207D
:1002000000000000A05E000808B5044B1BB10449C3
:100210000448AFF30080BDE80840CFE700000000CD
:1002200074000020A05E000800B50A4C2668054650
:1002300085B01C46F06852B1074B0091CDE9013200
:1002400006492B46224600F021F800F0C3FD044B7E
:100250001A46F2E7000000201C6600082C66000821
:10026000A864000808B513460022FFF7DDFF00BFB1
:100270000CB400B583B004AB53F8042B019300F029
:10028000D1F803B05DF804EB02B070470EB410B5BE
:1002900083B005AB064C53F8042B0193014620684C
:1002A00000F0C0F803B0BDE8104003B0704700BFD5
:1002B0000000002070B50D4E0D4D761BB61006D017
:1002C0000024013455F8043B9847A642F9D1094E61
:1002D000094D761B05F0E4FDB61006D0002401346C
:1002E00055F8043B9847A642F9D170BD98660008BE
:1002F000986600089C66000898660008F0B48607B7
:1003000046D0541E002A3CD0CAB2034602E014F183
:10031000FF3436D303F8012B9D07F8D1032C29D9DC
:10032000CDB245EA05250F2C45EA054533D9A4F1A0
:100330001006360903F1200707EB061703F1100238
:1003400042E9045542E902551032BA42F8D1721C12
:1003500014F00C0F03EB021204F00F0613D0331F3E
:1003600023F003030433134442F8045B9342FBD1AC
:1003700006F003042CB1C9B21C4403F8011B9C42D3
:10038000FBD1F0BC704734461346002CF3D1F8E79C
:1003900014460346C2E71A462646E0E79368013B47
:1003A000002B936011DA10B49469A34209DB0A2987
:1003B00007D01368581C1060197008465DF8044B8C
:1003C00070475DF8044B00F025BC1368581C1060A2
:1003D00019700846704700BF9BB1F8B513440F462B
:1003E00006465D1E541E01E0AC4208D03A4614F8A1
:1003F000011F3046FFF7D2FF431CF5D1F8BD0020A6
:10040000F8BD0020704700BF936810B5144613B9BB
:100410005360184610BD00F0C5FE0023C4E9013347
:1004200010BD00BF2DE9F04F9FB08B4690461C4693
:10043000039018B18369002B00F0B780A24B9B4555
:1004400000F0B980A14B9B4500F0C780A04B9B45B5
:1004500004BF039BD3F80CB0BBF80C30180740F175
:10046000B280DBF81030002B00F0AD8030238DF827
:10047000323098F800300594002120220B918DF83D
:100480003120944E0127002B00F08780252B00F0AF
:100490001581454603E0252B00F0A38025466B78A7
:1004A0006C1C002BF7D1B4EB080A76D042465346B9
:1004B00059460398FFF790FF01306ED00B9B6A7886
:1004C00053440B93002A68D000234FF0FF320134CD
:1004D0000693CDE908338DF85B301C93079205E055
:1004E000069A07FA03F313432C4606932546052282
:1004F00015F8011B304601F0A3F8AA46831B00281B
:10050000EED1069BD90644BF20228DF85B202178CE
:100510001A0744BF2B228DF85B202A2966D1059A41
:100520001168043200290592C0F29D80099161781A
:10053000A51C2E2973D0684C0322204601F080F8B8
:10054000002800F08680001B069B402404FA00F07F
:100550000343069305F10108297860488DF83010AF
:10056000062201F06DF8002800F083805C4B002B20
:1005700072D005AB00935A465A4B039806A9AFF3C5
:1005800000808146B9F1FF3F07D00B9B4B440B9392
:1005900098F80030002B7FF479AFBBF80C305B0685
:1005A00018D40B981FB0BDE8F08F00F0DBFD464B70
:1005B0009B457FF447AF039BD3F804B0BBF80C30E6
:1005C00018073FF54EAF5946039800F083FB00280B
:1005D0003FF44CAF4FF0FF30E4E7039BD3F808B093
:1005E0003AE7B4EB080A3FF46FAF5FE7A1F13002DE
:1005F000092A88BFA2469CD8099B01E02C460135F8
:10060000297803EB830302EB4303A1F13002092AAB
:10061000AA46F3D92E2904F1020509938BD19AF841
:1006200001102A292FD1059B9AF802101A68079207
:100630000433002A05930AF103050AF1020338DBAB
:10064000254C032220469A4600F0FAFF00287FF44A
:100650007AAFA84655467FE7059B073323F007038B
:100660000833059391E7494243F002030991069349
:100670005DE705AB00935A461A4B039806A900F0B4
:10068000D5F881467EE7A1F130020023092A0793BD
:1006900001D915E05546697803EB830302EB430368
:1006A000A1F13002092A05F1010AF3D902350793B5
:1006B00041E74FF0FF329A4607923CE7444603E792
:1006C000AA46013537E700BFFC5E0008DC5E000883
:1006D000BC5E00085C660008646600086866000886
:1006E00000000000D903000810B4044C13460A4669
:1006F000014620685DF8044BFFF794BE000000201F
:100700002DE9F0470C4691460A698968DDF820809A
:100710008A42B8BF0A46C9F8002094F8431006463A
:100720001F4611B10132C9F80020236899065CD533
:10073000D9F800200232C9F80020236813F0060F10
:1007400019461DD1E1688A1A002AD8BF194617DD5B
:1007500004F1190A002505E0E368D9F800209B1A86
:10076000AB420CDD0123524639463046C0470130CA
:1007700005F10105F0D14FF0FF30BDE8F0872168A9
:1007800094F84330003318BF01238A060AD5E118D4
:100790005A1C302081F84300224494F8451082F816
:1007A0004310023304F1430239463046C04701305A
:1007B000E1D02368A268216903F00603042B1DD051
:1007C0008A4226DD4FF00009521A91441A3400255E
:1007D00001E04D451DDA0123224639463046C04727
:1007E000013005F10105F4D1C5E713F0060F13D070
:1007F00094F84330003318BF0123D3E7D9F8000041
:10080000E3688A42A3EB000323EAE379DCDC002BF4
:10081000DCDC0020BDE8F087E168D9F800208A1A06
:10082000002AD8BF194693DCAAE700BF2DE9F043A0
:100830000C46097E85B06E29064617460C989846E8
:1008400004F1430E6DD039D9732900F0F68044D9F4
:10085000752900F00481782940F0118178232268FD
:10086000DFF858C284F845300168150651F8043B9A
:10087000016040F1A180D10744BF42F02002226014
:10088000002B00F093801022002184F84310606850
:10089000A0600028C0F2C880216821F00401216016
:1008A000002B40F0A380002840F0C0807546082A45
:1008B00000F0AC80AEEB0503236141E0632900F05A
:1008C000E5801AD8002938D0582940F0D88084F81B
:1008D00045102268DFF8E8C1C6E76F2900F0BF8045
:1008E000702940F0CC802268DFF8D0C142F02002AD
:1008F0007823226084F84530B6E7642902D069295C
:1009000040F0BD8022680368110603F1040557D545
:10091000196805600B46002959DBDFF8A4C10A22DB
:10092000B5E70368226861691D1D056015061B682F
:1009300002D4500600F1BD80196000237546236182
:10094000CDF800803B4603AA21463046FFF7D8FE8B
:10095000013020D02A46236939463046C04701304D
:1009600019D022680398E368920719D51A1A002A49
:1009700016DD04F11909002504E0E36803981A1A4A
:10098000AA420DDD01234A4639463046C0470130B0
:1009900005F10105F1D14FF0FF3005B0BDE8F0835E
:1009A0009842B8BF184605B0BDE8F083226822F02F
:1009B00020022260102267E7500648BF9BB25AE728
:1009C0005106A5D5B3F9003005601946A3E7616863
:1009D000A1602D200029C3F1000384F8430002DB4D
:1009E00022F004022260DFF8D8C00A22754600E037
:1009F0000B46B3FBF2F102FB113093421CF80000EE
:100A000005F8010DF4D2082A7FF454AF2368DB0700
:100A10007FF550AF626823699A423FF74BAF3023AE
:100A200005F8013C013D45E7002BDFD19CF8003083
:100A300084F8423004F1420539E703686268191D01
:100A400001601D680021284600F0FAFD002832D020
:100A5000401B60602061002384F8433070E7226807
:100A6000036812F0800F03F104051AD01B680560BB
:100A70006F290CBF08220A22DFF844C004E70123D3
:100A800084F84210236104F14205E4E703681A6820
:100A9000191D0123016004F1420584F842202361FD
:100AA000D9E712F0400F0DBF1B6805601B88056079
:100AB000DEE7198041E76068CCE700BF8466000884
:100AC000706600080EB410B5044683B008B183699F
:100AD00063B106A803460190059AA1682046FFF776
:100AE000A1FC03B0BDE8104003B0704700F03AFB32
:100AF000EFE700BF0FB410B50B4B1C6882B00CB110
:100B0000A36963B105A803460190049AA168204631
:100B1000FFF788FC02B0BDE8104004B070472046E3
:100B200000F020FBEEE700BF0000002083692DE904
:100B3000F04180460E4633B384682F4B9C4230D040
:100B40002E4B9C4239D02E4B9C4208BFD8F80C400B
:100B5000A3891B072AD5236943B3013EA36816F86E
:100B6000015F013BA3609DB3002B07DAA7699F4299
:100B700022462946404623DC0A2D21D023685A1CF0
:100B800022601D70EAE700F0EDFAD8F81830D8F8C6
:100B90000840002BD1D1404600F0E4FA164B9C42AD
:100BA000CED1D8F80440A3891B07D4D421464046AF
:100BB00000F090F80028D0D006E0D8F80840C7E749
:100BC00000F028F80130C9D14FF0FF30BDE8F081C6
:100BD000002B09DA224640460A2100F01BF80130BA
:100BE000F2D00A20BDE8F08123680A22591C216056
:100BF0001A701046BDE8F081FC5E0008DC5E00085B
:100C0000BC5E0008024B01461868FFF78FBF00BFAB
:100C100000000020F8B50D461446064608B1836969
:100C200043B3254B9C422AD0244B9C4229D0244BD1
:100C30009C4208BFF468A389A269A2601A0722D562
:100C4000236903B322686169D31AEDB299422F4632
:100C500029DD0133A168501C0139A16020601570A5
:100C600062699A4216D0A389DB0701D50A2D11D0FB
:100C70003846F8BD00F076FA0F4B9C42D4D1746828
:100C8000D9E7B468D7E72146304600F023F838B9F1
:100C90002369D7E72146304600F03AF90028E7D02B
:100CA0004FF0FF37E4E72146304600F031F90028E5
:100CB000F6D122680123CDE7FC5E0008DC5E000867
:100CC000BC5E0008024B0A4601461868FFF7A2BF47
:100CD000000000203B4B70B51D6806460C460DB168
:100CE000AB69DBB1384B9C421ED0384B9C424AD09A
:100CF000374B9C4208BFEC68B4F90C2093B219073B
:100D000018D5206908B313F001022CD063690022C2
:100D10005B42A361A26060B3002070BD284600F072
:100D200021FA294B9C42E0D16C68B4F90C2093B2B3
:100D30001907E6D4DD063CD5580726D4206942F0D1
:100D40000803A3819BB20028DDD103F42072B2F521
:100D5000007FD8D03046214600F026FCA3892069C8
:100D600013F00102D2D1990758BF6269A26000282E
:100D7000D2D1B4F90C301A06CFD543F04003A38189
:100D80004FF0FF3070BDAC68B6E7616B51B104F154
:100D90004403994204D0304600F0A4FDB4F90C207D
:100DA0000023636300232069636022F02402206033
:100DB000C5E742F04002092333604FF0FF30A281C3
:100DC00070BD00BF00000020FC5E0008DC5E000873
:100DD000BC5E000808B5062000F0FCFE012001F012
:100DE00093FE00BF8B891A072DE9F0410C4680461F
:100DF00041D44A68002A59DDE66A002E53D0002209
:100E0000D8F80050216AC8F8002013F4805251D15C
:100E100001234046B047431C5FD0A389E66A216A9C
:100E20005F0705D56268636B801A0BB1236CC01A2B
:100E3000024600234046B047461C45D1D8F8003052
:100E4000B4F90C20002B55D01D2B01D0162B5AD1F4
:100E500023690022C4E90032616BC8F8005011B365
:100E600004F14403994202D0404600F03BFD0020CB
:100E70006063BDE8F0810E69AEB10D680E60990740
:100E80000CBF63690023AD1BA3600AE02B4632460A
:100E9000A76A216A4046B8470028A5EB000506442A
:100EA0000ADD002DF2DC0020BDE8F0810A6C002A8A
:100EB000A2DCF8E7606DB3E7A38943F04003A381A8
:100EC0004FF0FF30BDE8F0812269A3892260002243
:100ED0006260DA04C0D56065BEE7D8F80030002B48
:100EE0009BD01D2B0CD0162B0AD0A38943F04003B6
:100EF000A381D9E72169C4E90013D304ACD5EAE79B
:100F0000C8F80050CFE742F04002A281CCE700BF12
:100F10000B6923B310B5044682B008B18369BBB135
:100F2000104B994212D0104B994216D00F4B994258
:100F300008BFE168B1F90C302BB1204602B0BDE822
:100F40001040FFF74FBF002002B010BD6168F1E70D
:100F5000019100F007F90199E2E7A168EAE70020B2
:100F6000704700BFFC5E0008DC5E0008BC5E000845
:100F700020B1054B01461868FFF7CABF034B04496F
:100F8000186800F0B9BA00BF00000020B85E000881
:100F9000110F000800207047014900F0ADBA00BFF2
:100FA000110F00080020704770B54A1E682505FB28
:100FB00002F50E4605F1740100F0EAFC044640B16A
:100FC00000210C30666005F168022160A060FFF727
:100FD00095F9204670BD00BF1E4B70B51D68AB690A
:100FE000064643B34835D5E90134013B05D51EE03B
:100FF000013B5A1C04F1680419D0B4F90C20002AF2
:10100000F6D10025144B6566C4E90055A560C4E916
:101010000455A5612946E360082204F15C00FFF74E
:101020006DF9C4E90D55C4E91255204670BD2C6810
:101030002CB12546D7E7284600F010F8D2E7042166
:101040003046FFF7B1FF044628600028F1D10C2399
:101050003360EAE7B85E00080100FFFF2DE9F84FB2
:10106000334B34491A68816290424FF00003C0E963
:101070001233036504BF012383610546FFF7ACFF0C
:1010800068602846FFF7A8FFA8602846FFF7A4FF7E
:101090006E68E86000240423F3607466C6E90044C7
:1010A000B460C6E90444B461214606F15C0008223C
:1010B000FFF724F9DFF888B0AF68DFF888A0DFF821
:1010C0008890DFF888801C4BC6F83080C6E9086B32
:1010D000C6E90AA92146FB6008227C66C7E90044EC
:1010E000BC60C7E90444BC6107F15C00FFF706F986
:1010F000EE68124BC7F83080C7E9087BC7E90AA938
:101100002146F3607466C6E90044B460C6E904444D
:10111000B46106F15C000822FFF7F0F80123C6E98C
:10112000086BC6E90AA9C6F83080AB61BDE8F88F44
:10113000B85E0008990F00080900010012000200C3
:10114000451C00086D1C0008AD1C0008CD1C0008E3
:10115000024B0349186800F0CFB900BFB85E000821
:10116000110F0008836903B978E77047704700BF23
:10117000704700BF704700BF704700BF024B034974
:10118000186800F093B900BF00000020950F000818
:10119000024B0349186800F089B900BF0000002025
:1011A000A50F00089368002B00F002812DE9F04F95
:1011B000B1F90C309BB20C46190783B082469046B9
:1011C00035D522699AB313F00202D8F800603DD0F9
:1011D0000027D4F828B0D4F820C0DFF8CC923D46E0
:1011E0004D452B463A4628BF4B4661465046D5B141
:1011F000D847002840F3D280D8F808301B1A07449B
:101200002D1AC8F80830002B00F0B780D4F820C0A1
:10121000D4F828B04D452B463A4628BF4B46614688
:101220005046002DE4D1D6E900750836D8E72146AE
:101230005046FFF74FFD002840F03081B4F90C30E4
:10124000D8F800609BB213F00202C1D113F001097B
:1012500040F0B080A76820684D46002D54D09A0514
:1012600040F1BC80AF42BB4600F2E78013F4906FC0
:101270002FD0D4E9041707EB4707A0EB010B07EBCE
:10128000D777681C7F105844B8423A4684BF074657
:101290003A465B0540F1E9801146504600F078FB84
:1012A000002800F0F5805A462169019000F018FAF4
:1012B000A289019B22F4906242F08002A281A7EBF6
:1012C0000B0203EB0B00676123612060A2602F46D5
:1012D000AB465A46494600F09DFAA2682368D21BE5
:1012E0005B442F46A26023600025D8F80830DB1B42
:1012F000B944C8F80830002B3FD0B4F90C30A768C7
:1013000020689BB2002DAAD1D6E900950836A4E743
:101310000BF1080353E902679B460833002FF9D00D
:101320003A460A21304600F08BF9002853D00130AC
:10133000A0EB06094B46D4E904122068BB4228BF43
:101340003B46884203D9A5681544AB4219DC9A4252
:101350007DDC1346A56A216A32465046A847051E21
:101360001CDDB9EB05096BD00120D8F808305B1BF8
:101370002E447F1BC8F8083013BB002003B0BDE823
:10138000F08F31462A4600F045FA23682B4423604B
:1013900021465046FFF7BCFD0028E2D0B4F90C30DE
:1013A00043F040034FF0FF30A38103B0BDE8F08F5E
:1013B0000020704733469146104617464E469B46DE
:1013C000002FA5D00028B5D13A460A21304600F0BA
:1013D00037F90028ABD17B1C9946ACE723698342DF
:1013E00015D36169A94212D82E4BA76A9D4294BFBA
:1013F0002B466FF000434A4693FBF1F3504601FB46
:1014000003F3216AB847071EC8DDED1B6DE7AF4245
:1014100028BF2F463A46494600F0FCF9A3682268E7
:10142000DB1B3A44A3602260002BEED121465046DC
:10143000FFF76EFD0028E8D0B0E72F46AB4648E73F
:1014400021465046FFF764FD00288ED0A6E71A46D5
:101450003146019300F0DEF9019BA1682268C91AA8
:101460001A44A16022601D467BE7504600F0F4FA62
:10147000034600287FF423AF2169504600F032FA7A
:10148000B4F90C300C2223F08003CAF8002087E75F
:101490000C23CAF80030B4F90C3081E74FF0FF306C
:1014A0006CE700BFFEFFFF7F00FCFF7F2DE9F041EE
:1014B00010F148071BD088460026D7E90154013DAA
:1014C0000FD4A389012B05F1FF3506D9B4F90E30ED
:1014D0000133204601D0C04706436B1C04F1680469
:1014E000EFD13F68002FE8D13046BDE8F0813E469D
:1014F0003046BDE8F08100BF2DE9F84310F1480700
:101500001FD0884606464FF00009D7E90154013D37
:1015100011D4A389012B05F1FF3508D9B4F90E3098
:1015200001332146304602D0C04749EA00096B1C0E
:1015300004F16804EDD13F68002FE6D14846BDE8CC
:10154000F883B9464846BDE8F88300BF70B50C463D
:10155000B1F90E10002996B016461D4613DB6A46F7
:1015600000F0E0FB00280EDB019A02F47042A2F5C5
:101570000052B2FA82F252094FF4806300202A60CE
:10158000336016B070BDA38900221B062A6004D503
:1015900040230020336016B070BD4FF480630020FC
:1015A000336016B070BD00BF8A8992070B4606D51E
:1015B00001F1470201211A60C3E90421704770B5A7
:1015C00082B001AB6A460C460646FFF7BFFF0099A2
:1015D0000546304600F0DCF9B4F90C3070B116491C
:1015E000B162019A0099206043F08003A381C4E9AD
:1015F00004018AB92B43A38102B070BD9A05FBD4C4
:1016000023F0030304F1470243F002030121A38105
:101610002260C4E90421EFE73046B4F90E1000F06F
:1016200095FB10B9B4F90C30E4E7A38923F0030368
:1016300043F001031BB2DDE7990F00080000000032
:1016400001F0FF01102A2BDB10F0070F08D010F873
:10165000013B013A8B422DD010F0070F42B3F6D177
:10166000F0B441EA012141EA014122F007047FF090
:1016700000070023F0E80256083C85EA010586EAE7
:10168000010685FA47F5A3FA87F586FA47F6A5FA23
:1016900087F68EB9EED1F0BC01F0FF0102F007022F
:1016A00032B110F8013B013A83EA010313B1F8D1DA
:1016B0000020704701387047002D06BF35460338BB
:1016C000073815F0010F07D1013015F4807F02BFF4
:1016D000013015F4C03F0130F0BC0138704700BF45
:1016E000844641EA000313F003036DD1403A41D32D
:1016F00051F8043B40F8043B51F8043B40F8043BEC
:1017000051F8043B40F8043B51F8043B40F8043BDB
:1017100051F8043B40F8043B51F8043B40F8043BCB
:1017200051F8043B40F8043B51F8043B40F8043BBB
:1017300051F8043B40F8043B51F8043B40F8043BAB
:1017400051F8043B40F8043B51F8043B40F8043B9B
:1017500051F8043B40F8043B51F8043B40F8043B8B
:1017600051F8043B40F8043B51F8043B40F8043B7B
:10177000403ABDD2303211D351F8043B40F8043B1B
:1017800051F8043B40F8043B51F8043B40F8043B5B
:1017900051F8043B40F8043B103AEDD20C3205D32B
:1017A00051F8043B40F8043B043AF9D2043208D023
:1017B000D2071CBF11F8013B00F8013B01D30B8895
:1017C00003806046704700BF082A13D38B078DD073
:1017D00010F003038AD0C3F10403D21ADB071CBF45
:1017E00011F8013B00F8013B80D331F8023B20F8AF
:1017F000023B7BE7043AD9D3013A11F8013B00F8E8
:10180000013BF9D20B7803704B7843708B7883706F
:10181000604670478842F0B40DD98B1883420AD9CC
:10182000841832B1224613F8014D02F8014D994255
:10183000F9D1F0BC70470F2A0ED80346541E002A77
:10184000F7D001340C44013B11F8012B03F8012FB0
:10185000A142F9D1F0BC704740EA01039B073BD19C
:10186000A2F110073F0901F1200606EB071601F16E
:10187000100300F1100453F8105C44F8105C53F8A6
:101880000C5C44F80C5C53F8085C44F8085C53F8B2
:10189000045C44F8045C1033B34204F11004EAD150
:1018A0007B1C1B0112F00C0F194402F00F050344BE
:1018B00015D0043DAD0803EB850C1C1F0E4656F8F1
:1018C000047B44F8047F6445F9D10135AD002B4415
:1018D000294402F00302B1E7541E0346B1E72A4649
:1018E000ACE700BF00293CD038B551F8043C0C1FD0
:1018F000002BB8BFE418054600F050FA234B1A68D5
:101900002AB1A2420DD921686018824223D06260B8
:1019100028461C60BDE8384000F042BAA34203D814
:101920001A465368002BF9D111685018A04219D0FB
:1019300024D821686018834206D06360546028462A
:10194000BDE8384000F02CBAD3E9000301446360DD
:1019500021605460F3E7D2E9000201446260216033
:10196000D6E7704720680144501883421160E6D1E1
:10197000D3E90003014453601160E0E70C232B60BE
:101980002846BDE8384000F00BBA00BF8C000020AC
:10199000F8B5CD1C25F0030508350C2D38BF0C25F6
:1019A000002D064633DBA94231D82A4F00F0F6F964
:1019B0003A6852B113685B1B04D43FE023685B1B99
:1019C00029D522465468002CF8D1796800293BD0EB
:1019D0002946304600F066F8431C28D0C41C24F089
:1019E0000304A04205D0211A304600F05BF8013014
:1019F0001DD02560304600F0D3F904F10B0020F033
:101A00000700231DC21A01D01B1AA350F8BD0C22D7
:101A100032600020F8BD0B2B05D8A242636811D0BC
:101A20005360E7E7144623601C442560E2E70C237B
:101A30003046336000F0B4F90020F8BD0B2BF1D82C
:101A4000536814463B60D5E7304600F02BF87860C9
:101A5000BEE700BF8C00002009B3F8B51446CAB138
:101A600006460D4600F09EF9A04202D32F463846A6
:101A7000F8BD21463046FFF78BFF07460028F6D019
:101A800022462946FFF72CFE30462946FFF72AFF5B
:101A90003846F8BD2746FFF725FF3846F8BD114602
:101AA000FFF776BF38B5074C00230546084623608C
:101AB00001F01CF8431C00D038BD2368002BFBD07C
:101AC0002B6038BD0407002010B580210446FFF7C5
:101AD0005FFF606440B1031F00227C3043F8042F95
:101AE0008342FBD1002010BD4FF0FF3010BD00BF7E
:101AF000436C0BB100207047E6E700BF1F2970B5AB
:101B0000054608D8436C16460C464BB153F82400E2
:101B100043F8246070BD162202604FF0FF3070BDA4
:101B2000FFF7D2FF08B96B6CF0E74FF0FF3070BDE4
:101B30001F2938B521D8426C05460C466AB152F8C7
:101B4000213053B1012B16D0591C10D0002520464E
:101B500042F824509847284638BD284600F070F8CF
:101B6000224601462846BDE8384000F055B8162305
:101B70000360012038BD002038BD162303604FF0FC
:101B8000FF3038BD1F2921D838B5436C05460C46B7
:101B900083B153F8242003EB84034AB1511C10D0C5
:101BA000012A0CD0002520461D609047284638BDEC
:101BB000012038BDFFF788FF28B96B6CE9E70320E7
:101BC00038BD022038BD4FF0FF3038BD4FF0FF3038
:101BD000704700BF024B01461868FFF7A9BF00BF5E
:101BE00000000020024B0A4601461868FFF786BF36
:101BF00000000020034B1868436C0BB100207047B5
:101C000062E700BF00000020024B01461868FFF7A2
:101C1000B9BF00BF0000002038B50B46074C054691
:101C2000114618460023236000F048FF431C00D0F3
:101C300038BD2368002BFBD02B6038BD0407002083
:101C400000F02CBF10B50C46B1F90E1000F0B2F840
:101C5000002803DB636D0344636510BDA38923F48F
:101C60008053A38110BD00BF002070472DE9F041D3
:101C70001646B1F90C201F46D3050C460546B1F9AE
:101C80000E1009D422F48052A2813B4632462846E7
:101C9000BDE8F04100F01EB80022022300F068F811
:101CA000B4F90C20B4F90E10ECE700BF10B50C46E7
:101CB000B1F90E1000F05CF8A389421C0EBF23F4AA
:101CC000805343F480536065A38110BDB1F90E10B9
:101CD00000F016B870B50D46084C114606461A4677
:101CE00028460023236001F0D7F8431C00D070BDC4
:101CF0002368002BFBD0336070BD00BF04070020B9
:101D000038B5074C002305460846236000F0B6FEB0
:101D1000431C00D038BD2368002BFBD02B6038BD9E
:101D20000407002038B50B46074C054611461846F7
:101D30000023236000F0AAFE431C00D038BD2368B6
:101D4000002BFBD02B6038BD0407002038B5074CB2
:101D5000002305460846236000F0A8FE431C00D07F
:101D600038BD2368002BFBD02B6038BD0407002052
:101D700070B50D46084C114606461A462846002303
:101D8000236000F0A3FE431C00D070BD2368002B2D
:101D9000FBD0336070BD00BF04070020704700BF58
:101DA000704700BF51F8043C181F002BBCBF0B58F4
:101DB000C018704770B50D46084C114606461A46C5
:101DC00028460023236000F089FE431C00D070BD2C
:101DD0002368002BFBD0336070BD00BF04070020D8
:101DE00000B510EE103A204A23F00043934283B02E
:101DF00019DDB3F1FF4F04DB30EE400A03B05DF8AC
:101E000004FB684600F034F800F00300012811D00C
:101E100002281FD0B8B10120DDED010A9DED000AB6
:101E200000F026FDEAE7DFED110A00F06DF903B0DE
:101E30005DF804FBDDED010A9DED000A00F018FDE0
:101E4000B1EE400ADAE7DDED010A9DED000A00F08F
:101E50005BF9D3E7DDED010A9DED000A00F054F9CE
:101E6000B1EE400ACAE700BFD80F493F00000000AA
:101E700070B510EE103A964A23F00044944286B0B2
:101E8000054668DD934A944210EE106A1ADC002B76
:101E900024F00F04DFED907A904A40F3F2809442F0
:101EA00070EE677A66D09FED8E7A77EEC76A012072
:101EB00077EEE67AC5ED006A77EEC77AC5ED017A6E
:101EC00006B070BD874A944267DDB4F1FF4F49DA2E
:101ED000E215863AA4EBC25307EE903ABDEEE77ADC
:101EE000DFED816AB8EEC77A77EEC77A8DED037AB7
:101EF00067EEA67ABDEEE77AB8EEC77A77EEC77AD4
:101F00008DED047A67EEA67AF5EE407AF1EE10FADE
:101F1000CDED057A40F0A280B5EE407AF1EE10FAF0
:101F200014BF02230123714901910221009103A8EA
:101F3000294600F06BF9002EC2DA95ED007AD5ED56
:101F4000017AB1EE477AF1EE677A404285ED007A88
:101F5000C5ED017AB4E7002285ED000A4260002059
:101F600006B070BD70EE407A0020C5ED017AC5ED77
:101F7000007AA5E7DFED5E6A9FED5E7A77EEE67A9E
:101F8000012077EEC76A77EEE67AC5ED006A77EE54
:101F9000C77AC5ED017A06B070BD00F0B1FCDFED87
:101FA000566ADFED4D5A9FED4E7AF6EE007AE0EE7E
:101FB000267AFDEEE77A17EE900AF8EEE76A1F2818
:101FC000B1EE666AA6EE250A66EE877A1EDC421E30
:101FD0004A4B53F8223024F0FF029A4230EE677ADF
:101FE00016D085ED007A30EE470A002E30EE670AF3
:101FF00085ED010ABFF664AFB1EE477AB1EE400A53
:1020000085ED007A85ED010A404259E730EE677AA6
:1020100017EE103AE415C3F3C753E31A082BE0DDBB
:10202000DFED337A9FED337AF0EE405AE6EE275A31
:1020300030EE650AA6EE270AF0EE407AD6EE877AF1
:1020400035EEE77A17EE103AC3F3C753E41A192CAA
:1020500006DC85ED007AB0EE650AC4E7032362E78B
:102060009FED277A9FED275AB0EE650AA6EE070A84
:1020700075EEC07AE6EE077AD6EE857A30EE677AAC
:10208000AFE7944270EE277A0ED09FED157A77EE87
:10209000876A4FF0FF3077EEE67AC5ED006A77EE9B
:1020A000877AC5ED017A0BE7DFED116A9FED117AB2
:1020B00077EEA67A4FF0FF3077EE876A77EEE67A12
:1020C000C5ED006A77EE877AC5ED017AF8E600BFC4
:1020D000D80F493FE3CB1640800FC93FD00FC93F0F
:1020E00043443537800F4943000080439C5F00081C
:1020F0000044353708A3852E84F9223F1C5F000871
:1021000000A3852E32318D2410EE103A23F00043C7
:10211000B3F1485F2CDAFDEEC07A17EE903A002B4F
:1021200060D020EE007ADFED314A9FED315ADFEDCD
:10213000315A9FED316ADFED317ADFED316AA7EE7A
:10214000245AE7EE055AA7EE256AE7EE067AE7EE8F
:10215000276A66EE876A60EEC00AB6EE006AE7EEAE
:10216000260AF7EE007AD7EE060A37EEE00A704745
:1021700020EE007ADFED1D4A9FED1D5ADFED1D5A5E
:102180009FED1D6ADFED1D7ADFED1D6A1D4AA7EE8A
:10219000245A9342E5EE075AA5EE876AE6EE077ADF
:1021A000E7EE876A66EE876AD5DD174A934214DC4C
:1021B00003F17F4307EE903AB7EE006A36EE676AA6
:1021C00060EEC00AF6EE005AE7EE260AD7EE257A50
:1021D00077EEE07A36EE670A7047B6EE076AF5EEFC
:1021E000027AEDE7B7EE000A704700BF4ED747AD61
:1021F000F6740F317CF293B4010DD037610BB6BA8F
:10220000ABAA2A3D9999993E0000483F2DE9F04F2D
:102210002DED048BDBB0D64C689D0791111D54F851
:10222000255004930992814603F1FF38C0F257828A
:10223000D31E44BF13460433DB1003930133DB008A
:102240000893DDE908239B1A0693039B15EB08010D
:10225000A3EB080316D401319FEDC67A699819449F
:102260001EAA002BA4BF50F8234007EE904A03F1AA
:102270000103ACBFF8EEE77AF0EE477A8B42E2EC6E
:10228000017AEED1049B002D4FEA830C4FEA850AB8
:102290001DDB1EAB03EB0C0447AB09EB0C0103EB9E
:1022A0000A0646A8B8F1000FDFEDB27A09DB224634
:1022B0004B46F3EC016A32ED017A8B42E6EE877A07
:1022C000F7D1E0EC017AB04204F10404EAD1AAF1BA
:1022D00008030AAFFB180593AB4609AB01959FEDC8
:1022E000A79ADFEDA58A069D09EB0C049A4446AE39
:1022F0004FEA8B015AAB0B44BBF1000F13ED140AEC
:1023000016DD06EB8B033A4660EE097AB0EE407AB2
:10231000FDEEE77A73ED016AF8EEE77AB342A7EED5
:10232000E87A37EEA60ABDEEC77AA2EC017AEBD1C5
:102330002846029100F030FBB0EE408AB4EE000A6D
:1023400028EE000A00F0E4FAF2EE007AA0EE678AC6
:10235000002D0299FDEEC89AF8EEE97A38EE678A08
:1023600075DD0BF1FF3CC5F1080357F82C2042FA4C
:1023700003F000FA03F3D31A47F82C30C5F1070233
:1023800019EE90CA43FA02F28444002A09EE90CA78
:1023900066DCB5EE408AF1EE10FA40F0A380019BB6
:1023A0000BF1FF3C63450EDC0BF18041013907EB7B
:1023B0008101002051F80439514540EA0300F9D168
:1023C000002840F0EE80019B013B57F82330002BA2
:1023D00040F0E280059B012053F804290130002AD7
:1023E000FAD00BF1010358449C46039A03EB020E0A
:1023F000049A1EA95A440EF1804E01EB820269999B
:102400000EF1FF3E01EB8E0E06EB830B5EF8043FF0
:102410009FED587A07EE903AF8EEE77A1146B8F158
:10242000000FE1EC017A09DB4B4601E072ED017A25
:10243000F3EC016AA342A6EEA77AF7D10CF1010CE6
:102440008445ABEC017A0A46E0DD834650E740F074
:1024500099800BF1FF3357F823201212002A98DDE0
:1024600019EE903ABBF1000F03F1010309EE903A27
:1024700040F3C4813868002861D1BBF1010F0BD053
:10248000BE464FF0010C5EF8040F0CF1010300286A
:1024900058D19B459C46F6D1002D0CDD012D00F056
:1024A0001581022D07D10BF1FF3157F8213003F0D0
:1024B0003F0347F82130022A7FF46BAFB7EE000AE2
:1024C00030EE488A00283FF464AF2846029200F0BC
:1024D00063FA38EE408A029AB5EE408AF1EE10FABD
:1024E0003FF45DAF9046DDE90832B0EE480A981A35
:1024F000019D00F051FA9FED207AB4EEC70AF1EE8B
:1025000010FAC0F27D81DFED1D7A069B60EE277A1E
:102510000833FDEEE77A0693F8EEE77A0BF1010354
:10252000A7EEC70AFDEEE77ABDEEC00A10EE102A4C
:1025300047F82B2017EE902A47F8232046E0012386
:102540004FF0000CC0F580709B4547F82C000CDD67
:1025500057F82300394407EB830300E01868C0F103
:10256000FF0043F8040B8B42F8D1012094E700BF31
:10257000B462000800000000000080430000803BBF
:102580000000C93FF6EE007AB4EEE78AF1EE10FAE9
:1025900080F2AA800022FCE60BF101039C4618465B
:1025A00023E70699019D904657F82C200839634689
:1025B00006915AB90BF18042023A07EB820252F8B7
:1025C0000409013B08390028F9D0069106980193C7
:1025D000B7EE000A00F0E0F9019B002BC0F22F815A
:1025E0009E0046AA06F1040C1FED1C7A1644311D0C
:1025F00007EB0C0272ED017AF8EEE77ABA4267EE69
:10260000807A20EE070A61ED017AF3D10DF1C80E50
:10261000002D77464FF000041FED276A1DDB92481E
:10262000DFED927A3146B0EE467A002203E0A24214
:1026300008DCB0EC017AF1EC016A01329542E6EE79
:10264000877AF4DA9C42E7EC017AA6F1040604F1F9
:1026500001020CD0002D1446E1DADFED847A9C42B1
:10266000E7EC017AA6F1040604F10102F2D1689ABE
:10267000032A22D8DFE802F0B19F9F4ADFED7B7A80
:102680009DED327A424637EE677A002A40F0C080EC
:10269000079A002BC2ED007A0CDD33A90122F1EC80
:1026A000017A0132934237EE277AF8DA43460BB1CA
:1026B000B1EE477A079B83ED017A19EE903A03F069
:1026C00007005BB0BDEC048BBDE8F08F0BF1FF3170
:1026D00057F8213003F07F0347F82130EBE6082359
:1026E000089300230393ACE519EE903ABBF1000F79
:1026F00003F1010309EE903AC8BF02223FF7BAAED8
:10270000F7EE007A37EEC88A022242E6002B40F349
:10271000A88099005AAA0A440DF1C80E52ED286A01
:102720000EEB830272ED017A37EEA67A964577EECC
:10273000C77A82ED007A77EEA67AF0EE476AC2EDAC
:10274000017AEFD1012B40F38C8003F18043013BF0
:102750005AAA9B0011441A1D51ED286A724433A9EC
:1027600072ED017A37EEA67A914277EEC77A82ED62
:10277000007A77EEA67AF0EE476AC2ED017AEFD1E1
:102780000833DFED3A7A73440EF1080E33ED017A27
:102790009E4577EE877AF9D14346DDED326A9DEDAD
:1027A000337A002B3DD1079BC3ED006A83ED017A9C
:1027B000C3ED027A81E7DFED2D7AF4443CED017A36
:1027C000E64577EE877AF9D19DED327A424637EECB
:1027D000677A002A3FF45CAF1AE0DFED247AF44414
:1027E0003CED017AE64577EE877AF9D143460BB1A5
:1027F000F1EE677A079BC3ED007A5EE700204BE6B7
:10280000BDEEC00A5B4610EE102A47F82B20DDE62D
:10281000079AF1EE677A002BC2ED007A3FF73DAFE1
:1028200046E7079BF1EE666AB1EE477AF1EE677A0A
:10283000C3ED006A83ED017AC3ED027A3DE7689A41
:10284000032A3FF63AAF01A151F822F05D280008B3
:102850007D2600087D2600080D270008DFED037A9D
:10286000C4E7DFED027A97E7C462000800000000C9
:1028700010EE103A23F00043B3F1485F04DAFDEEA6
:10288000C07A17EE903A5BB360EE007A9FED155A6E
:10289000DFED155A9FED156ADFED156A9FED157A8C
:1028A000E7EE855A20EE275AA5EEA76AE6EE276ADC
:1028B000A6EEA77A30B9DFED106AE7EE876AA6EEDA
:1028C000850A704727EE457AF6EE006AA0EEA67AF2
:1028D000DFED0A6AD7EE270AE5EE260A30EE600A37
:1028E000704700BFD3C92E2F342FD7B21BEF383615
:1028F000010D50B98988083CABAA2ABEABAA2A3E72
:1029000010EE103A23F0004300EE103A704700BF7B
:1029100010EE102A22F00041CB0D7F3B162B28DC55
:10292000002B18DB194919410A4221D0DFED187A32
:1029300070EE277AF5EEC07AF1EE10FA18DD002A73
:1029400004DA4FF4000040FA03F31A4422EA0103C8
:1029500000EE103A7047DFED0E7A70EE277AF5EE52
:10296000C07AF1EE10FA03DD002A08DB9FED090AB8
:102970007047B1F1FF4FFBD330EE000A70470029DA
:10298000FFEE007A18BFB0EE670A7047FFFF7F00C6
:10299000CAF249710000000082B08DED010A019B6E
:1029A00033F000422AD0B2F1FF4F23D213F0FF4F91
:1029B00028D19DED017ADFED2A7A2A4B67EE277A3E
:1029C0009842CDED017A37DB019BC3F3C752193A28
:1029D0000244FE2A1ADD9FED240A9FED247A019B12
:1029E000002BF0EE407AB8BFB0EE470A20EE270A7F
:1029F00002B0704730EE000A02B070479DED010A48
:102A000002B07047D20D0244FE2AE4DC002A0BDC3F
:102A100012F1160F17DA4CF250339842DBDC9FEDBF
:102A2000140A9FED147ADAE723F0FF4343EAC25316
:102A300000EE103A02B070479FED0D0ADDED017A0D
:102A400027EE800AD8E7193223F0FF4343EAC25346
:102A5000DFED097A07EE103A27EE270ACCE700BF30
:102A60000000004CB03CFFFFCAF24971CAF249F1C4
:102A70006042A20D6042A28D00000033024B58223A
:102A80001A604FF0FF30704704070020024B5822B5
:102A90001A604FF0FF30704704070020024B5822A5
:102AA0001A604FF0FF30704704070020024B582295
:102AB0001A600020704700BF04070020024B582214
:102AC0001A604FF0FF30704704070020024B582275
:102AD0001A604FF0FF30704704070020024B582265
:102AE0001A604FF0FF30704704070020044A054980
:102AF0001368002B08BF0B46184410601846704737
:102B00009400002008070020FEE700BF38B50C46FF
:102B1000334B984206D0334B98421AD0324B9842EE
:102B20002AD038BD0B7F402BFBD1304B0868496859
:102B3000A268E568186059609A60DD602069616983
:102B4000A269186159619A6101F044F9284B186033
:102B5000E7E70B7F402BE4D1264B08684968A26861
:102B6000E568186059609A60DD6020696169A26952
:102B7000186159619A61D4E70B7FA02BD1D10D78F0
:102B80006B1E042B07D9013D052DCAD8DFE805F0DF
:102B9000090E13181D22691CC9B2134802F0D2FF96
:102BA000F1E7B4F90220144B1A80BAE7B4F9022015
:102BB000124B1A80B5E7B4F90220114B1A80B0E726
:102BC000B4F902200F4B1A80ABE7B4F902200E4B88
:102BD0001A80A6E7B4F902200C4B1A80A1E700BFC7
:102BE000B40000200C030020A0010020E00200201F
:102BF0009C01002098000020F0030020EE0300203C
:102C000096010020EC030020800200209A010020A1
:102C100030B5A7B0202200211EA8FDF76FFB0024CD
:102C20001794189419941A941B945822214601A8B9
:102C3000FDF764FB01251C954FF480331D931F9510
:102C40001CA801F0E1F80F231793189519944FF47D
:102C500080631A931B94214617A801F023FC1723C5
:102C60000193039404940594079401A801F01CFDBA
:102C700027B030BD2DE9F0412DED048B01F08CF82B
:102C80000024674B1C60674B1C70674B1C70674BC4
:102C90001E221A80664B1C80664B1C80664B1C8073
:102CA000664B1C80664B1C80664B1C80664B40F25A
:102CB000D9321A80FFF7ACFF322001F091F802F010
:102CC0000DF903F009F802F0F7FA02F055F902F0F5
:102CD000BBFA02F00DFB02F077F902F0D1FA5B4982
:102CE0005B4802F097FFDFF8AC8122465949404625
:102CF00002F066FE584F22465849384602F060FE00
:102D0000574D01225749284602F05AFE564E424678
:102D1000314608F1040002F05DFD3A463146381DA7
:102D200002F058FD2A463146281D02F053FD4F4857
:102D3000FDF768FF4E4800F049F94E4800F046F9AB
:102D400005E04D4B40F2DC5223F8142001340D2CE9
:102D5000F7DD002305E0494A40F2DC5122F8131068
:102D600001330D2BF7DD2FE0324BB3F9003000EECD
:102D7000103AB8EEC00A9FED429A20EE090ADFED44
:102D8000418A20EE280AFFF72BF8B0EE408A2A4B42
:102D9000B3F9003000EE103AB8EEC00A20EE090A8E
:102DA00020EE280AFFF71CF828EE000A07EE904AEA
:102DB000F8EEE77A27EE800ABCEEC00A1B4B10EE55
:102DC000102A1A801A4B1C8001F004F804460122D4
:102DD00080212D4801F0C2FE2C4AA2FB0432520988
:102DE0004FF4FA7303FB1242FA2A94BF0022012225
:102DF0004FF48061264801F0B1FE264802F04CFEF7
:102E0000154802F049FE164802F046FE104C2046D6
:102E100002F04CFF6488064B1B889C42A4D1D3E788
:102E20009C010020DC020020980100209401002079
:102E300082020020F0030020EE0300209601002013
:102E4000EC030020800200209A0100207005002081
:102E500084020020940600200C0300207804002047
:102E6000A0010020240600200D2B0008EC620008C1
:102E7000F80300203804002098000020E002002021
:102E80000000C84235FA8E3C00080048D34D62105D
:102E900000040048B400002010460023834201DAF9
:102EA0000133FBE7704770477047FEE7FEE7FEE738
:102EB000FEE770477047704708B500F07FFF08BD18
:102EC00008B5024801F013FF08BD00BFE804002068
:102ED00008B5024801F00BFF08BD00BF2C0500201B
:102EE00008B5024801F003FF08BD00BFE00500205F
:102EF00008B5024800F07AFE08BD00BF2406002095
:102F000008B5024800F072FE08BD00BF940600201C
:102F100008B5024800F06AFE08BD00BF7804002032
:102F200008B5024800F062FE08BD00BF7005002031
:102F300008B5024800F05AF808BD00BFF8030020A9
:102F400008B5024800F052F808BD00BF3804002060
:102F500000B583B01C4B9A6942F001029A619A69EC
:102F600002F001020092009ADA6942F08052DA61BE
:102F7000DB6903F080530193019B002201216FF074
:102F80000B0001F021FF002201216FF00A0001F087
:102F90001BFF002201216FF0090001F015FF002244
:102FA00001216FF0040001F00FFF002201216FF0FA
:102FB000030001F009FF002201216FF0010001F080
:102FC00003FF03B05DF804FB001002400268D36801
:102FD00043F00103D3600268136843F001031360F8
:102FE00000207047704770477047704710B504461F
:102FF00003681A6912F0020F11D0DA6812F0020F9A
:103000000DD06FF002021A610123037703689B69F8
:1030100013F0030F79D0FFF7E6FF0023237723682F
:103020001A6912F0040F12D0DA6812F0040F0ED0F1
:103030006FF004021A610223237723689B6913F45B
:10304000407F68D02046FFF7CEFF00232377236818
:103050001A6912F0080F12D0DA6812F0080F0ED0B9
:103060006FF008021A61042323772368DB6913F0E9
:10307000030F57D02046FFF7B6FF002323772368BE
:103080001A6912F0100F12D0DA6812F0100F0ED079
:103090006FF010021A61082323772368DB6913F4A9
:1030A000407F46D02046FFF79EFF0023237723680A
:1030B0001A6912F0010F03D0DA6812F0010F3FD144
:1030C00023681A6912F0800F03D0DA6812F0800FBB
:1030D0003DD123681A6912F4807F03D0DA6812F0B8
:1030E000800F3BD123681A6912F0400F03D0DA68D1
:1030F00012F0400F39D123681A6912F0200F03D063
:10310000DA6812F0200F37D110BDFFF76BFF2046B1
:10311000FFF76AFF81E72046FFF764FF2046FFF7CD
:1031200063FF92E72046FFF75DFF2046FFF75CFF55
:10313000A3E72046FFF756FF2046FFF755FFB4E709
:103140006FF001021A61204601F09EFFB8E76FF0B0
:1031500080021A61204600F0CAF8BAE76FF4807264
:103160001A61204600F0C4F8BCE76FF040021A6113
:103170002046FFF73AFFBEE76FF020021A612046B3
:1031800000F0B4F8C0E700000368324A904212D061
:10319000B0F1804F0FD0A2F5943290420BD002F5DF
:1031A0008062904207D002F59632904203D002F539
:1031B000E052904203D123F070034A681343254A3A
:1031C00090421ED0B0F1804F1BD0A2F594329042B5
:1031D00017D002F58062904213D002F596329042E9
:1031E0000FD002F5406290420BD002F5806290420F
:1031F00007D002F58062904203D002F5006290424F
:1032000003D123F44073CA68134323F080034A694F
:10321000134303608B68C3620B6883620D4B984253
:1032200013D003F5006398420FD003F54063984232
:103230000BD003F58063984207D003F58063984272
:1032400003D003F50063984201D10B6903630123A6
:1032500043617047002C0140A8B110B5044690F8B6
:103260003D305BB1022384F83D30211D2068FFF71B
:103270008BFF012384F83D30002010BD80F83C30E6
:1032800001F0CAFEEEE701207047000090F83C30E4
:10329000012B26D030B4012380F83C3002685368FB
:1032A0009568114CA24207D004F50064A24203D0F5
:1032B00004F5E054A24203D123F470034C68234385
:1032C00023F070030C68234325F0800489682143B0
:1032D000536003689960002380F83C30184630BC86
:1032E00070470220704700BF002C014070477047B4
:1032F00070470268136823F0C0031360202380F82E
:10330000693070470268136823F490731360026891
:10331000936823F001039360202380F86A3070479C
:1033200090F86930DBB2202B18D1C9B1D2B190F836
:103330006830012B18D0C164A0F85020A0F85220AA
:103340000023C366212280F8692080F86830016874
:103350000A6842F080020A601846704702207047EF
:1033600001207047012070470220704790F86A30B2
:10337000DBB2202B49D1002949D0002A49D090F84E
:103380006830012B47D0012380F868304165A0F8F0
:103390005820A0F85A208368B3F5805F06D0A3B9FF
:1033A000036973B9FF23A0F85C3011E0036923B906
:1033B00040F2FF13A0F85C300AE0FF23A0F85C3075
:1033C00006E07F23A0F85C3002E0B3F1805F12D00A
:1033D0000023C366222280F86A2080F868300168E2
:1033E0008A6842F001028A6001680A6842F49072B9
:1033F0000A601846704703691BB97F23A0F85C3048
:10340000E6E73F23A0F85C30E2E7022070470120A6
:1034100070470120704702207047000038B590F8CF
:103420006950EDB2202D33D1002933D0002A33D09A
:1034300090F86830012B31D013460446012280F801
:103440006820C164A0F85030A0F852300025C5664D
:10345000212280F86920026E11499162026E1149A1
:10346000D162026E10491163026E55630268283200
:10347000C16C006E01F0DCFB236840221A6284F804
:1034800068502268936843F080039360284600E008
:10349000022038BD0120FCE70120FAE70220F8E70E
:1034A000AD340008E1340008EB34000808B5436A85
:1034B0000268126812F0200F0DD10022A3F85220EA
:1034C00019688A6822F080028A601A68136843F0DB
:1034D0004003136008BD184602F0A6F8FAE77047EB
:1034E00008B5406AFFF7FBFF08BD10B5446A94F8C1
:1034F0006930DBB2212B0CD094F86A30DBB2222B7E
:1035000013D0E36E43F01003E366204602F0B4F8F4
:1035100010BD23689B6813F0800FEDD00023A4F842
:1035200052302046FFF7E5FEE6E723689B6813F07C
:10353000400FE6D00023A4F85A302046FFF7E2FE01
:10354000DFE708B5406A0023A0F85A30A0F85230EF
:1035500002F092F808BD90F86830012B17D00123D3
:1035600080F86830242380F869300268136823F0FB
:103570000C0313600268136843F0080313602023F0
:1035800080F86930002380F86830184670470220C0
:10359000704790F86830012B17D0012380F868300D
:1035A000242380F869300268136823F00C03136049
:1035B0000268136843F004031360202380F8693025
:1035C000002380F8683018467047022070470000DA
:1035D00010B5044683680269134342691343C26904
:1035E0001343016808689C4A024013430B60226839
:1035F000536823F44053E1680B435360A369226A84
:103600001A4321688B6823F4306313438B6023686B
:10361000924A93421FD0924A93422FD0914A9342AA
:1036200046D0914A93425DD0904A934274D0102282
:10363000E169B1F5004F00F08B80082A00F20A81A1
:10364000DFE812F0CE00DA00E6000801F20008011F
:1036500008010801FE0002F55842126B02F0030255
:10366000032A09D8DFE802F0020406720122DFE72C
:103670000422DDE70822DBE71022D9E702F5E63273
:10368000126B02F44032B2F5803F0BD007D9B2F58D
:10369000003F09D0B2F5403F08D10222C8E72AB95D
:1036A0000022C5E70422C3E70822C1E71022BFE7D2
:1036B00002F5E432126B02F44022B2F5802F0BD0F7
:1036C00007D9B2F5002F09D0B2F5402F08D1022258
:1036D000AEE72AB90022ABE70422A9E70822A7E750
:1036E0001022A5E702F5E232126B02F44012B2F5A5
:1036F000801F0BD007D9B2F5001F09D0B2F5401FCB
:1037000008D1022294E72AB9002291E704228FE728
:1037100008228DE710228BE702F5E032126B02F4EB
:103720004002B2F5800F0BD007D9B2F5000F09D0D7
:10373000B2F5400F08D102227AE72AB9002277E7D2
:10374000042275E7082273E7102271E702226FE76F
:10375000082A42D8DFE802F0051722412D414141F5
:10376000380000F075FF6268530803EB4003B3FBB9
:10377000F2F39BB2002023F00F02C3F34203134382
:103780002268D36010BD00F079FF6268530803EB34
:103790004003B3FBF2F39BB20020ECE762685308EE
:1037A00003F5740303F51053B3FBF2F39BB200204F
:1037B000E1E700F039FE6268530803EB4003B3FB16
:1037C000F2F39BB20020D6E76268530803F580331A
:1037D000B3FBF2F39BB20020CDE701200023CAE740
:1037E00000F036FF636800EB5300B0FBF3F0236892
:1037F00080B2D8600020C5E700F040FF636800EBAE
:103800005300B0FBF3F0236880B2D8600020B9E722
:1038100061684A0802F5F40202F59052B2FBF1F237
:1038200092B2DA600020ADE700F0FEFD636800EBC5
:103830005300B0FBF3F0236880B2D8600020A1E70A
:1038400061684A0802F50042B2FBF1F292B2DA6016
:10385000002097E7012095E7F369FFEF003801406A
:103860000044004000480040004C00400050004030
:10387000436A13F0010F06D00268536823F4003343
:10388000816A0B435360436A13F0020F06D002684B
:10389000536823F48033C16A0B435360436A13F0C7
:1038A000040F06D00268536823F48023016B0B4396
:1038B0005360436A13F0080F06D00268536823F47C
:1038C0000043416B0B435360436A13F0100F06D063
:1038D0000268936823F48053816B0B439360436ABF
:1038E00013F0200F06D00268936823F40053C16BD5
:1038F0000B439360436A13F0400F0AD00268536889
:1039000023F48013016C0B435360036CB3F5801FE9
:103910000BD0436A13F0800F06D00268536823F47B
:103920000023816C0B43536070470268536823F493
:10393000C003416C0B435360EBE72DE9F0410546B2
:103940000F4616469846069C2B68DB6937EA030348
:103950000CBF01230023B3421DD1B4F1FF3FF3D0CC
:103960002CB100F037FAA0EB0800A042ECD92A688D
:10397000136823F4D07313602A68936823F001035B
:103980009360202385F8693085F86A30002385F834
:103990006830032000E00020BDE8F08130B583B03E
:1039A00004460023C36600F015FA054623681B6829
:1039B00013F0080F0ED123681B6813F0040F17D102
:1039C000202384F8693084F86A30002084F8680085
:1039D00003B030BD6FF07E430093034600224FF4E6
:1039E00000112046FFF7A9FF0028E4D00320EFE7ED
:1039F0006FF07E4300932B4600224FF48001204657
:103A0000FFF79BFF0028DBD00320E1E778B310B578
:103A1000044690F869300BB3242384F86930226897
:103A2000136823F0010313602046FFF7D1FD01283E
:103A300013D0636ABBB92268536823F49043536080
:103A40002268936823F02A0393602268136843F086
:103A5000010313602046FFF7A1FF10BD80F8683016
:103A600001F062FCD8E72046FFF702FFE3E7012000
:103A70007047002834D010B5044690F8693033B34D
:103A8000242384F869302268136823F0010313604B
:103A90002046FFF79DFD012818D0636AE3B922682C
:103AA000536823F4904353602268936823F0220301
:103AB00093602268936843F0080393602268136858
:103AC00043F0010313602046FFF768FF10BD80F844
:103AD000683001F029FCD3E72046FFF7C9FEDEE796
:103AE0000120704790F86930DBB2212B2ED1B0F85D
:103AF00052309BB28BB18368B3F5805F19D0C36C31
:103B00005A1CC26402681B781385B0F85230013B1E
:103B10009BB2A0F85230002070470268136823F06F
:103B2000800313600268136843F0400313600020B1
:103B300070470369002BE2D1C36C02681B88C3F392
:103B400008031385C36C0233C364DEE702207047A9
:103B500008B501680B6823F040030B60202380F850
:103B6000693001F061FD002008BDB0F85C2090F8DC
:103B70006A30DBB2222B31D110B503689B8C9BB22B
:103B80008168B1F5805F0ED0D2B2416D4C1C4465A6
:103B90001A400A70B0F85A30013B9BB2A0F85A3074
:103BA0005BB1002010BD01690029EDD1416D1A40C3
:103BB0000A80436D02334365ECE70268136823F41F
:103BC000907313600268936823F0010393602023CD
:103BD00080F86A3001F0F4FC0020E3E702689369A2
:103BE00043F00803936102207047000038B5044693
:103BF0000268D369116813F00F0505D113F0200F87
:103C000002D011F0200F60D19068002D72D010F01A
:103C1000010502D111F4907F6CD013F0010F07D091
:103C200011F4807F04D001201062E26E0243E2664C
:103C300013F0020F07D035B1226802201062E26E45
:103C400042F00402E26613F0040F07D035B1226897
:103C500004201062E26E42F00202E26613F0080FE6
:103C600009D011F0200F00D12DB122680820106278
:103C7000E26E0243E266E26E002A4DD013F0200F9E
:103C800002D011F0200F23D1E36E13F0080F04D1FE
:103C900023689B6813F0400F26D02046FFF732FBC5
:103CA00023689A6812F0400F1AD09A6822F04002F6
:103CB0009A60636E83B1234A5A63606E00F0F2FF2C
:103CC00050B3606E436B984726E0FFF74EFF23E04A
:103CD0002046FFF74AFFD7E7204601F0CDFC1BE066
:103CE000204601F0C9FC17E0204601F0C5FC002386
:103CF000E36611E013F4801F02D010F4800F0CD1A2
:103D000013F0800F02D011F0800F12D113F0400F8A
:103D100002D011F0400F10D138BD4FF48013136260
:103D2000202384F8693084F86A30204600F00CF8CB
:103D3000F2E72046FFF7D6FEEEE72046FFF708FF42
:103D4000EAE700BF433500087047000010B504469D
:103D50000E4B18784FF47A73B3FBF0F30C4A1068EB
:103D6000B0FBF3F001F070F868B90F2C01D9012015
:103D70000AE0002221464FF0FF3001F025F8054B04
:103D80001C60002000E0012010BD00BF6400002086
:103D90006C0000206800002008B5074A136843F053
:103DA00010031360032000F0FDFF0020FFF7CEFF9B
:103DB000FFF7CEF8002008BD00200240034A11683A
:103DC000034B1B780B441360704700BFF4030020C3
:103DD00064000020014B1868704700BFF403002006
:103DE00038B50446FFF7F6FF0546B4F1FF3F02D0B1
:103DF000044B1B781C44FFF7EDFF401BA042FAD395
:103E000038BD00BF64000020002800F0F98270B5C2
:103E100082B00446036813F0010F3DD0B44B5B68D9
:103E200003F00C03042B20D0B14B5B6803F00C03B0
:103E3000082B13D06368B3F5803F6AD0002B40F0A5
:103E40008D8003F1804303F504331A6822F4803235
:103E50001A601A6822F480221A605FE0A44B5B6843
:103E600003F4C033B3F5803FE4D14FF4003393FA49
:103E7000A3F39F4B19684FF4003393FAA3F3B3FAFB
:103E800083F303F01F03012202FA03F30B4203D072
:103E90006368002B00F0BC82236813F0020F00F06F
:103EA000C180934B5B6813F00C0F00F09780904B30
:103EB0005B6803F00C03082B00F08880E368002B9C
:103EC00000F0EE80012292FAA2F3B3FA83F303F139
:103ED000845303F584139B001A60FFF77BFF0546AC
:103EE000022393FAA3F3824B1968022393FAA3F3F4
:103EF000B3FA83F303F01F03012202FA03F30B4228
:103F000040F0BF80FFF766FF401B0228E8D903207E
:103F100085E2774A136843F4803313606368002BAB
:103F200036D0FFF757FF05464FF4003393FAA3F35B
:103F30006F4B19684FF4003393FAA3F3B3FA83F38A
:103F400003F01F03012202FA03F30B42A4D1FFF78F
:103F500041FF401B6428E7D9032060E2B3F5A02F9E
:103F600009D0634B1A6822F480321A601A6822F46E
:103F700080221A60D2E703F18043A3F53C331A682C
:103F800042F480221A601A6842F480321A60C5E74F
:103F9000FFF720FF05464FF4003393FAA3F3544B89
:103FA00019684FF4003393FAA3F3B3FA83F303F0E1
:103FB0001F03012202FA03F30B423FF46DAFFFF738
:103FC00009FF401B6428E6D9032028E2484B5B68C0
:103FD00003F4C033B3F5004F7FF470AF022393FABC
:103FE000A3F3434B1968022393FAA3F3B3FA83F3C1
:103FF00003F01F03012202FA03F30B4204D0E3682B
:10400000934201D001200AE23948036823F0F80303
:104010002169F82292FAA2F2B2FA82F201FA02F2CD
:1040200013430360236813F0080F00F08D80636969
:10403000002B61D0012191FAA1F2B2FA82F22D4B4C
:1040400013449B001960FFF7C5FE0546022393FA4F
:10405000A3F293FAA3F293FAA3F2254A516A93FAD0
:10406000A3F3B3FA83F303F01F03012202FA03F36D
:104070000B4269D1FFF7AEFE401B0228E6D90320B0
:10408000CDE11B48036823F0F8032169F82292FA76
:10409000A2F2B2FA82F201FA02F213430360C1E71C
:1040A000012393FAA3F3B3FA83F303F1845303F5E3
:1040B00084139B0000221A60FFF78CFE0546022342
:1040C00093FAA3F30A4B1968022393FAA3F3B3FA02
:1040D00083F303F01F03012202FA03F30B42A1D082
:1040E000FFF778FE401B0228E9D9032097E100BFC3
:1040F0000010024020819010012292FAA2F2B2FA3E
:1041000082F2C04B13449B0000221A60FFF762FE4C
:104110000546022393FAA3F293FAA3F293FAA3F2C9
:10412000B94A516A93FAA3F3B3FA83F303F01F0376
:10413000012202FA03F30B4206D0FFF74BFE401BAD
:104140000228E6D903206AE1236813F0040F00F087
:10415000B380AD4BDB6913F0805F20D1AA4BDA69E5
:1041600042F08052DA61DB6903F080530193019BD6
:104170000125A64B1B6813F4807F12D0A368012B86
:1041800023D073BB03F1804303F504331A6A22F092
:1041900001021A621A6A22F004021A621AE0002569
:1041A000E7E79A4A136843F480731360FFF712FE3F
:1041B0000646964B1B6813F4807FDFD1FFF70AFE9B
:1041C000801B6428F5D9032029E18F4A136A43F044
:1041D00001031362A368002B41D0FFF7FBFD0646E5
:1041E0002BE0052B09D0884B1A6A22F001021A62D3
:1041F0001A6A22F004021A62ECE7834B1A6A42F050
:1042000004021A621A6A42F001021A62E2E77E4B65
:10421000196A022393FAA3F3B3FA83F303F01F039B
:10422000012202FA03F3194245D1FFF7D3FD801BA7
:1042300041F28833984200F2ED80022393FAA3F210
:1042400093FAA3F3B3FA83F35B0943F00203022B5F
:10425000DDD0022393FAA3F36B4B596AD9E7FFF73A
:10426000B9FD064615E0684B196A022393FAA3F3D9
:10427000B3FA83F303F01F03012202FA03F3194296
:1042800019D0FFF7A7FD801B41F28833984200F256
:10429000C380022393FAA3F293FAA3F3B3FA83F34E
:1042A0005B0943F00203022BDDD0022393FAA3F350
:1042B000554B596AD9E7B5BBA369002B00F0AE8016
:1042C000514A526802F00C02082A00F0AA80022B20
:1042D0002FD04FF0807393FAA3F3B3FA83F303F173
:1042E000845303F584139B0000221A60FFF772FDCC
:1042F00004464FF0007393FAA3F3434B19684FF051
:10430000007393FAA3F3B3FA83F303F01F030122BC
:1043100002FA03F3194271D0FFF75CFD001B02287B
:10432000E7D903207BE0384AD36923F08053D36177
:10433000C2E74FF0807393FAA3F3B3FA83F303F168
:10434000845303F584139B0000221A60FFF742FD9B
:1043500005464FF0007393FAA3F32B4B19684FF007
:10436000007393FAA3F3B3FA83F303F01F0301225C
:1043700002FA03F3194206D0FFF72CFD401B022876
:10438000E7D903204BE0204AD36A23F00F03616A88
:104390000B43D362536823F47613216AE069014327
:1043A0000B4353604FF0807393FAA3F3B3FA83F394
:1043B00003F1845303F584139B0001221A60FFF775
:1043C00009FD04464FF0007393FAA3F30E4B1968EE
:1043D0004FF0007393FAA3F3B3FA83F303F01F03D0
:1043E000012202FA03F3194206D1FFF7F3FC001B86
:1043F0000228E7D9032012E0002010E000200EE0A0
:104400000120704720819010001002400070004091
:10441000012004E0032002E0032000E0002002B0BD
:1044200070BD0120FBE700BF194B5B6803F00C0275
:10443000042A03D0082A03D016487047164870474C
:1044400003F470114FF4701292FAA2F2B2FA82F2EF
:1044500021FA02F21149885C0D4AD26A02F00F0279
:104460000F2191FAA1F1B1FA81F1CA400C498A5C9D
:1044700013F4803F05D0084BB3FBF2F200FB02F0CF
:104480007047044BB3FBF2F200FB02F0704700BF31
:104490000010024000127A000024F400FC620008C0
:1044A0000C630008002800F0C08070B50446614B22
:1044B0001B6803F007038B420CD25E4A136823F09B
:1044C00007030B431360136803F007038B4201D00B
:1044D000012070BD236813F0020F06D0564A5368BE
:1044E00023F0F003A068034353600D46236813F0E4
:1044F000010F5AD06368012B2DD0022B40D002222D
:1045000092FAA2F24C4A1068022292FAA2F2B2FA8D
:1045100082F202F01F02012101FA02F2104200F0C1
:10452000868045494A6822F0030213434B60FFF737
:1045300051FC0646404B5B6803F00C036268B3EB2A
:10454000820F32D0FFF746FC801B41F2883398423D
:10455000F0D90320BDE74FF4003292FAA2F2364AB6
:1045600010684FF4003292FAA2F2B2FA82F202F02C
:104570001F02012101FA02F20242D2D10120A8E772
:104580004FF0007292FAA2F22B4A10684FF00072BC
:1045900092FAA2F2B2FA82F202F01F02012101FAAB
:1045A00002F21042BDD1012093E7224B1B6803F0B9
:1045B0000703AB420CD91F4A136823F007032B43B0
:1045C0001360136803F00703AB4201D0012080E7BA
:1045D000236813F0040F06D0174A536823F4E063EE
:1045E000E1680B435360236813F0080F07D0124AA9
:1045F000536823F46053216943EAC1035360FFF712
:1046000013FF0D4B5B6803F0F003F02292FAA2F265
:10461000B2FA82F2D340094AD35CD840084B186002
:104620000020FFF793FB002053E701207047012093
:104630004FE700BF00200240001002401C6300084A
:104640006C000020014B1868704700BF6C00002010
:1046500008B5FFF7F7FF074B5B6803F4E0634FF41F
:10466000E06292FAA2F2B2FA82F2D340024AD35C3A
:10467000D84008BD001002402C63000808B5FFF7C1
:10468000E1FF074B5B6803F460534FF4605292FA0A
:10469000A2F2B2FA82F2D340024AD35CD84008BDFB
:1046A000001002402C630008F0B583B00446036894
:1046B00013F4803F48D0A14BDB6913F0805F40F0DA
:1046C00022819E4BDA6942F08052DA61DB6903F0A5
:1046D00080530193019B0125994B1B6813F4807F44
:1046E00000F01381954B1B6A13F4407322D062686B
:1046F00002F440729A421DD09048016A21F440763B
:104700004FF4803393FAA3F2B2FA82F28D4F3A4417
:1047100092004FF0010CC2F800C093FAA3F3B3FA71
:1047200083F33B449B0000221A60066211F0010FE4
:1047300040F00081814A136A23F4407361680B439F
:104740001362002D40F02881236813F0010F06D07A
:104750007A4A136B23F00303A1680B4313632368A6
:1047600013F0020F06D0754A136B23F44033E1684F
:104770000B431363236813F0040F06D06F4A136BC7
:1047800023F4402321690B431363236813F0200FA4
:1047900006D06A4A136B23F01003E1690B431363DD
:1047A000236813F4003F06D0644A536823F480035F
:1047B000616D0B435360236813F0400F06D05F4ACE
:1047C000136B23F02003216A0B431363236813F454
:1047D000802F06D0594A136B23F04003616A0B43C4
:1047E0001363236813F0080F06D0544A136B23F4A5
:1047F000401361690B431363236813F0100F06D055
:104800004E4A136B23F44003A1690B4313632368DF
:1048100013F4007F06D0494A536823F40003216B48
:104820000B435360236813F0800F06D0434AD36ACA
:1048300023F4F873A16A0B43D362236813F4807FD7
:1048400006D03E4AD36A23F47853E16A0B43D3621D
:10485000236813F4805F06D0384A136B23F4807307
:10486000616B0B431363236813F4005F06D0334A74
:10487000136B23F40073216C0B431363236813F44D
:10488000801F06D02D4A136B23F08073A16B0B435E
:104890001363236813F4001F06D0284A136B23F018
:1048A0000073E16B0B431363236813F4800F06D08E
:1048B000224A136B23F48063616C0B4313632368F8
:1048C00013F4000F06D01D4A136B23F40063A16C90
:1048D0000B431363236813F0807F06D0174A136BD2
:1048E00023F40053E16C0B431363236813F0007F40
:1048F00059D0124A136B23F40043216D0B43136309
:10490000002003B0F0BD0025E6E60D4A136843F42D
:1049100080731360FFF75EFA0646094B1B6813F4B9
:10492000807F7FF4DFAEFFF755FA801B6428F4D94F
:104930000320E6E7FFF74EFA06461BE000100240B0
:104940000070004000819010184B196A022393FAFE
:10495000A3F3B3FA83F303F01F03012202FA03F374
:104960000B427FF4E7AEFFF735FA801B41F2883344
:10497000984216D8022393FAA3F293FAA3F3B3FA58
:1049800083F35B0943F00203022BDDD0022393FA89
:10499000A3F3064B596AD9E7D36923F08053D36157
:1049A000D2E60320ADE70020ABE700BF00100240D5
:1049B000F0B482B0002336E0062400E00024B440C6
:1049C0003C430235614E46F82540614C2568D4438E
:1049D00004EA05064F6817F4803F01D042EA050655
:1049E0005B4D2E606D6804EA05064F6817F4003FC2
:1049F00001D042EA0506564D6E60AD6804EA050630
:104A00004F6817F4801F01D042EA0506504DAE6092
:104A1000ED682C404E6816F4001F01D042EA0504F0
:104A20004B4AD46001330A6832FA03F400F08B80F9
:104A300001249C402240F5D04D68022D01D0122D5A
:104A400010D1DE08083650F826C003F00705AF0085
:104A50000F25BD402CEA050C0D69BD4045EA0C054B
:104A600040F8265006685F000325BD40ED4305EA87
:104A7000060C4E6806F00306BE4046EA0C060660C9
:104A80004E6806F1FF3CBCF1010F03D9112E01D095
:104A9000122E10D1866805EA060CCE68BE4046EAA2
:104AA0000C068660466826EA04044E68C6F30016C3
:104AB0009E4026434660C46825408C68BC402C4319
:104AC000C4604C6814F0805FACD0224CA56945F0FE
:104AD0000105A561A46904F001040194019C9D08ED
:104AE000AE1C1A4C54F8267003F00304A6000F24E1
:104AF000B44027EA0407B0F1904F3FF45FAF164C83
:104B0000A04216D004F58064A04214D004F580645D
:104B1000A04212D004F58064A04210D004F5806455
:104B2000A0420ED004F58064A0423FF445AF0724B4
:104B300045E7012443E7022441E703243FE7042437
:104B40003DE705243BE702B0F0BC704700000140A0
:104B50000004014000100240000400480AB98162CC
:104B600070478161704770B4066CC56B0124B44016
:104B70006C60046863604368102B05D0036899601B
:104B80000368DA6070BC704703689A600368D96094
:104B9000F8E7000002680C4B9A420AD90B4B134409
:104BA0000B4AA2FB03231B099B000364094BC3634D
:104BB0007047094B1344064AA2FB03231B099B00C1
:104BC0000364064BC363704707040240F8FBFDBF54
:104BD000CDCCCCCC00040240F8FFFDBF0000024069
:104BE00020B310B50446022380F8213001680A681A
:104BF00022F47F5222F03002436880680343E06869
:104C000003432069034360690343A0690343E069E8
:104C1000034313430B602046FFF7BCFF0020A06353
:104C2000012384F8213084F8200010BD0120704752
:104C300038B590F82040012C32D0012480F8204073
:104C400090F82140012C04D0002380F8203002206D
:104C500038BD0446022084F821000020A0632568A6
:104C6000286820F0010028602046FFF77CFFE36AF7
:104C70005BB12268136843F00E0313602268136867
:104C800043F0010313600020E2E72268136843F059
:104C90000A0313602268136823F004031360EDE72E
:104CA0000220D5E708B590F82130022B03D0042369
:104CB0008363012008BD0268136823F00E031360AC
:104CC0000268136823F001031360036CC16B0122B7
:104CD00002FA03F34B6080F82120002380F8203093
:104CE000436B13B198470020E4E70020E2E738B5B2
:104CF000C36B1A6804682568016C04238B40134257
:104D000013D015F0040F10D0236813F0200F03D137
:104D1000236823F004032360016CC26B04238B40DF
:104D20005360C36A03B1984738BD02238B401342D6
:104D30001AD015F0020F17D0236813F0200F06D1F8
:104D4000236823F00A032360012380F82130016CDB
:104D5000C26B02238B405360002380F82030836AAB
:104D6000002BE1D09847DFE7082303FA01F1114255
:104D7000DAD015F0080FD7D0236823F00E03236094
:104D8000026CC16B012303FA02F24A60836380F86C
:104D90002130002380F82030036B002BC4D09847CB
:104DA000C2E70000074AD36823F4E0631B041B0C2E
:104DB000000200F4E060184340F0BF6040F40030AF
:104DC000D060704700ED00E030B4174BDB68C3F3F0
:104DD0000223C3F10704042C28BF04241D1D062D43
:104DE00018D9033B4FF0FF3505FA04F421EA04011A
:104DF000994005FA03F322EA0303194300280BDB69
:104E00000901C9B200F1604000F5614080F800136B
:104E100030BC70470023E5E700F00F000901C9B27C
:104E2000024B1954F4E700BF00ED00E014ED00E080
:104E300000F01F02400901239340024A42F820304B
:104E4000704700BF00E100E00138B0F1807F0AD276
:104E5000064B5860064AF02182F823100020986023
:104E600007221A6070470120704700BF10E000E081
:104E700000ED00E01549D1F8883043F47003C1F823
:104E80008830134B1A6842F001021A605868114AC0
:104E900002405A601A6822F0847222F480321A604A
:104EA0001A6822F480221A605A6822F4FE025A60BC
:104EB000DA6A22F00F02DA62186B074A02401A63BC
:104EC00000229A604FF000638B60704700ED00E0B5
:104ED000001002400CC07FF8CCFC00FF30B58BB056
:104EE000002405940694079408940994204B5A6969
:104EF00042F480025A615A6902F480020092009AD8
:104F00005A6942F400325A615A6902F4003201923D
:104F1000019A5A6942F400225A615A6902F4002245
:104F20000292029A5A6942F480225A615A6902F442
:104F300080220392039A5A6942F480125A615B6993
:104F400003F480130493049B0A4D22464FF48061BE
:104F50002846FFF703FE4FF4806305930123069371
:104F60000794089405A92846FFF722FD0BB030BD31
:104F7000001002400004004800B585B000230193F2
:104F8000029303930E480F4A02601122426083602D
:104F90004DF6BF22C2608361FEF75EF950B900236F
:104FA0000193039301A90648FEF770F928B905B0EB
:104FB0005DF804FBFDF777FFF1E7FDF774FFF6E717
:104FC000F80300200010004000B585B000230193D5
:104FD000029303930E480F4A0260112242608360DD
:104FE0004CF60772C2608361FEF736F950B90023B0
:104FF0000193039301A90648FEF748F928B905B0C3
:105000005DF804FBFDF74FFFF1E7FDF74CFFF6E716
:10501000380400200014004000B583B00368174A2C
:10502000934205D0164A934215D003B05DF804FBB5
:10503000144BDA6942F01002DA61DB6903F0100305
:105040000093009B002202213620FFF7BDFE362090
:10505000FFF7EEFEE9E70B4BDA6942F02002DA6176
:10506000DB6903F020030193019B0022022137201A
:10507000FFF7AAFE3720FFF7DBFED6E7001000405F
:1050800000140040001002402DE9F0410446FEF7F4
:10509000A1FE23685A4A934205D05A4A934200F02F
:1050A000A980BDE8F0810546574B5A88574B9A8630
:1050B000574A1288DA86574A12881A87564A12883F
:1050C0005A87564A12889A87554A1288DA87554A6B
:1050D0001288A3F84020072309E0534A32F813103E
:1050E00003F11804494A02EB4402918001330D2B6D
:1050F000F3DD464800F0FEFC4B4B5B89B3F5E16FF6
:105100002CBF00240124B3F5E16F1ED3474B1F6869
:10511000EF1BB7F57A7F94BF00260126444B1B781E
:1051200013B9B7F57A7F05D8B7F57A7F08D9414B1F
:105130001B782BB1344B5A8829463F4800F0F6FDC6
:10514000B7F57A7F27D8002317E000230D2B4BDC1F
:10515000354A32F8131003F11800384A02EB4002C6
:1051600091800133F2E7304A32F8130003F118025C
:10517000324901EB4202908001330D2B32DC052BCA
:10518000F1D02F4A32F8130003F118022B4901EB3A
:1051900042029080F0E7DFF87080274F214BB3F98F
:1051A0000030B8F802202946384600F0CFFD234BE6
:1051B00040F2DC529A86DA8618875A874FF4FA62F0
:1051C0009A87B8F8022002F57A72A3F84020D7ED4A
:1051D000017AFCEEE77A17EE902A92B202F57A7223
:1051E000A3F84220124B1E70124B1C70134800F0A3
:1051F00081FC56E70121134800F0A4FC51E700BFF1
:10520000001000400014004084020020B400002080
:1052100096010020EE030020F0030020EC030020A4
:10522000800200209A010020980000209C010020AC
:10523000DC02002098010020FC0200200C0300206A
:10524000E0020020A001002008B50B480B4B0360D2
:105250004FF4E133436000238360C36003610C2299
:1052600042618361C36103624362FEF7CFFB00B911
:1052700008BDFDF718FEFBE7700500200050004058
:1052800008B50B480B4B03604FF4E1334360002338
:105290008360C36003610C2242618361C361036266
:1052A0004362FEF7E6FB00B908BDFDF7FCFDFBE736
:1052B000240600200038014008B50B480B4B036062
:1052C0004FF4E133436000238360C36003610C2229
:1052D00042618361C36103624362FEF797FB00B9D9
:1052E00008BDFDF7E0FDFBE7940600200044004008
:1052F00008B50B480B4B03604FF4E13343600023C8
:105300008360C36003610C2242618361C3610362F5
:105310004362FEF77BFB00B908BDFDF7C4FDFBE768
:1053200078040020004800402DE9F04190B00023AF
:105330000B930C930D930E930F930368924A934231
:105340000ED00446914A934248D0914A934200F0CD
:105350008380904A934200F0BF8010B0BDE8F08196
:105360008D4BDA6942F48012DA61DA6902F4801254
:105370000192019A5A6942F400225A615A6902F470
:1053800000220292029A5A6942F480125A615B69C1
:1053900003F480130393039B4FF480530B93022772
:1053A0000C9700240D9403260E9605250F950BA946
:1053B0007A48FFF7FDFA04230B930C970D940E9691
:1053C0000F950BA97648FFF7F3FA224621463520C0
:1053D000FFF7FAFC3520FFF72BFDBEE76E4B9A690D
:1053E00042F480429A619A6902F480420492049ADB
:1053F0005A6942F400225A615B6903F40023059361
:10540000059B10260B9612230C9300250D95032364
:105410000E9307230F930BA96048FFF7C9FA614861
:10542000614B0360466085608023C3600561456110
:105430008561C561FFF7D4FB58B95A4B23665C629E
:10544000002211462520FFF7BFFC2520FFF7F0FCC6
:1054500083E7FDF728FDF0E74F4BDA6942F40032AD
:10546000DA61DA6902F400320692069A5A6942F465
:1054700000325A615B6903F400330793079B0C23E6
:105480000B9302230C9300250D9503230E93072302
:105490000F930BA94FF09040FFF78AFA4348444B13
:1054A00003601023436085608023C360056145610C
:1054B0008561C561FFF794FB58B93C4B23665C627C
:1054C000002211462620FFF77FFC2620FFF7B0FCC4
:1054D00043E7FDF7E8FCF0E72F4BDA6942F480225E
:1054E000DA61DA6902F480220892089A5A6942F471
:1054F00080225A615A6902F480220992099A5A69F3
:1055000042F400225A615B6903F400230A930A9B68
:105510004FF400630B934FF00208CDF83080002564
:105520000D9503270E9707260F960BA92148FFF725
:105530003FFA4FF480630B93CDF830800D950E97B2
:105540000F960BA91548FFF733FA1B481B4B036056
:105550001023436085608023C360056145618561D8
:10556000C561FFF73DFB58B9134B23665C6200220F
:1055700011462720FFF728FC2720FFF759FCECE60F
:10558000FDF791FCF0E700BF0050004000380140FB
:10559000004400400048004000100240000800485D
:1055A000000C00482C05002044000240E0050020CB
:1055B0008000024000040048E80400201C00024073
:1055C00010B504460268104B9A420CD022680F4B6B
:1055D0009A420CD022680E4B9A420CD022680D4B96
:1055E0009A420CD010BD0C4800F018FAEEE70B48B8
:1055F00000F014FAEEE70A4800F010FAEEE7094866
:1056000000F020FBEEE700BF0038014000440040FE
:105610000048004000500040A0010020B4000020DD
:105620000C0300208402002010B5044602680C4BD5
:105630009A4208D022680B4B9A4208D022680A4B43
:105640009A4208D010BD094800F047FAF2E708482E
:1056500000F043FAF2E7074800F03FFAF2E700BF34
:10566000003801400044004000480040A0010020F4
:10567000B40000200C030020C36EE3B110B5044653
:1056800003680D4A93420AD00C4A93420BD00C4A4D
:1056900093420CD0E16E0B48FBF72CFA10BD0A4880
:1056A000FBF728FAF6E70948FBF724FAF2E708487F
:1056B000FBF720FAEEE77047004800400044004046
:1056C000005000404063000834630008386300085D
:1056D0003C6300087047402903D0018480F82410FF
:1056E0007047038C202BF8D14023438480F8251089
:1056F000037801330370704701F0F003802B03D06F
:10570000018480F824107047038C042BF8D1802387
:10571000438480F82510037801330370704701F04B
:10572000F003902B03D0018480F824107047038C81
:10573000062BF8D19023438480F825100378013399
:105740000370704701F0F003A02B03D0018480F8B0
:1057500024107047038C062BF8D1A023438480F8D3
:105760002510037801330370704790F8243083F4D8
:105770007F4383F0FF0390F825209B1A9BB2002102
:1057800004E0421852789B1A9BB20131028C043A11
:105790008A42F6DCC08B984214BF0020012070477B
:1057A00000224FF6FF7391420ADD10B4845C1B1B8C
:1057B0009BB201329142F9DC18465DF8044B704708
:1057C0001846704700230370014BC362704700BF47
:1057D000D5560008C16282627047000003789BB111
:1057E00030B589B00446012B14D0012B03D9028CAB
:1057F000023A934229DB228C901E83422BD0013A3D
:1058000093422CD009B030BD018480F824100133BC
:105810000370704701F0F003802B0CD006D9902B59
:105820000CD0A02B0DD1FFF78DFFEBE7402B08D15B
:10583000FFF751FFE6E7FFF75FFFE3E7FFF76FFFD3
:10584000E0E784F824102184DCE75A1C0270023B54
:1058500018444170D6E7E18301332370D2E7E38B2C
:1058600043EA0121E1832046FFF77FFFC0B2002811
:1058700051D0638C8DF81C30802B33D014D9902BF1
:105880003BD0A02B2BD194F8253003F00F038DF8DB
:1058900000306378A27843EA0223ADF80230E36A6D
:1058A0006946A06A98471AE0402B18D100210A46A1
:1058B0000FE063185B7808A800EB420525F8203C50
:1058C000481C2044407843EA002325F8203C01325C
:1058D00002310D2AEDDDE36A6946A06A984700238C
:1058E00023708FE794F8253003F00F0308A901F81F
:1058F000203DE36AA06A9847F1E794F8253003F069
:105900000F038DF8003063788DF80130E36A694643
:10591000A06A9847E3E70348FBF774F90023237074
:1059200070E700BFF86300081F2A1ED9F0B42023D7
:105930000B7040234B704FF69F7300240DE030F83E
:105940001420D6B29B1B9BB26500AF1CCE55120A29
:105950009B1A9BB203354A5501340D2CEFDD8B7732
:105960001B0ACB770020F0BC70474FF0FF30704728
:10597000032B1CD938B51446802803D0902801D0B9
:10598000A0280ED10425257001F00F01014361709C
:1059900002212046FFF704FFA070000AE0702846AD
:1059A00038BD044B044ABC210448FAF73DFC4FF0D3
:1059B000FF3070478463000864630008EC630008EC
:1059C00038B504460D46C0F8B410002380F85030B6
:1059D00080F8523080F853300270C0F8D830C0F8E8
:1059E000DC3007E003F1180204EB420240F2DC5124
:1059F000918001330D2BF5DD201DFFF7E3FE012221
:105A000004F151012846FDF7B1FC014600B938BD4B
:105A10000148FBF76FF8FAE75464000808B590F8FE
:105A20005320D2B290F8523040339A4218D090F8B6
:105A3000533003F03F0390F85120034483F854207F
:105A400090F853300133DBB280F85330012200F17B
:105A50005101D0F8B400FDF789FC014668B908BDD2
:105A600090F8531090F852200648FBF743F8064B85
:105A7000064A23210648FAF7D7FB0648FBF73AF80F
:105A8000EDE700BF88640008AC64000818640008F3
:105A9000B0640008C464000810B5044614E094F82B
:105AA000523003F03F03D4F8D8200132C4F8D82094
:105AB000234493F85410201DFFF790FE94F85230C1
:105AC0000133DBB284F8523094F85220D2B294F809
:105AD0005330DBB29A42E2D110BD08B5002380F802
